{
  "address": "0x0e3F8DF8Db7473b8Eec3193fF84AaBfB5304Ef8A",
  "abi": [
    {
      "inputs": [],
      "name": "AccessControlBadConfirmation",
      "type": "error"
    },
    {
      "inputs": [
        {
          "internalType": "address",
          "name": "account",
          "type": "address"
        },
        {
          "internalType": "bytes32",
          "name": "neededRole",
          "type": "bytes32"
        }
      ],
      "name": "AccessControlUnauthorizedAccount",
      "type": "error"
    },
    {
      "inputs": [
        {
          "internalType": "address",
          "name": "target",
          "type": "address"
        }
      ],
      "name": "AddressEmptyCode",
      "type": "error"
    },
    {
      "inputs": [
        {
          "internalType": "address",
          "name": "implementation",
          "type": "address"
        }
      ],
      "name": "ERC1967InvalidImplementation",
      "type": "error"
    },
    {
      "inputs": [],
      "name": "ERC1967NonPayable",
      "type": "error"
    },
    {
      "inputs": [],
      "name": "EnforcedPause",
      "type": "error"
    },
    {
      "inputs": [],
      "name": "ExpectedPause",
      "type": "error"
    },
    {
      "inputs": [],
      "name": "FailedCall",
      "type": "error"
    },
    {
      "inputs": [],
      "name": "InvalidInitialization",
      "type": "error"
    },
    {
      "inputs": [],
      "name": "NotInitializing",
      "type": "error"
    },
    {
      "inputs": [
        {
          "internalType": "address",
          "name": "token",
          "type": "address"
        }
      ],
      "name": "SafeERC20FailedOperation",
      "type": "error"
    },
    {
      "inputs": [],
      "name": "UUPSUnauthorizedCallContext",
      "type": "error"
    },
    {
      "inputs": [
        {
          "internalType": "bytes32",
          "name": "slot",
          "type": "bytes32"
        }
      ],
      "name": "UUPSUnsupportedProxiableUUID",
      "type": "error"
    },
    {
      "anonymous": false,
      "inputs": [
        {
          "indexed": true,
          "internalType": "address",
          "name": "stTokenAddress",
          "type": "address"
        },
        {
          "indexed": true,
          "internalType": "uint256",
          "name": "poolWeight",
          "type": "uint256"
        },
        {
          "indexed": true,
          "internalType": "uint256",
          "name": "lastRewardBlock",
          "type": "uint256"
        },
        {
          "indexed": false,
          "internalType": "uint256",
          "name": "minDepositAmount",
          "type": "uint256"
        },
        {
          "indexed": false,
          "internalType": "uint256",
          "name": "unstakeLockedBlocks",
          "type": "uint256"
        }
      ],
      "name": "AddPool",
      "type": "event"
    },
    {
      "anonymous": false,
      "inputs": [
        {
          "indexed": true,
          "internalType": "address",
          "name": "user",
          "type": "address"
        },
        {
          "indexed": true,
          "internalType": "uint256",
          "name": "poolId",
          "type": "uint256"
        },
        {
          "indexed": false,
          "internalType": "uint256",
          "name": "MetaNodeReward",
          "type": "uint256"
        }
      ],
      "name": "Claim",
      "type": "event"
    },
    {
      "anonymous": false,
      "inputs": [
        {
          "indexed": true,
          "internalType": "address",
          "name": "user",
          "type": "address"
        },
        {
          "indexed": true,
          "internalType": "uint256",
          "name": "poolId",
          "type": "uint256"
        },
        {
          "indexed": false,
          "internalType": "uint256",
          "name": "amount",
          "type": "uint256"
        }
      ],
      "name": "Deposit",
      "type": "event"
    },
    {
      "anonymous": false,
      "inputs": [
        {
          "indexed": false,
          "internalType": "uint64",
          "name": "version",
          "type": "uint64"
        }
      ],
      "name": "Initialized",
      "type": "event"
    },
    {
      "anonymous": false,
      "inputs": [],
      "name": "PauseClaim",
      "type": "event"
    },
    {
      "anonymous": false,
      "inputs": [],
      "name": "PauseWithdraw",
      "type": "event"
    },
    {
      "anonymous": false,
      "inputs": [
        {
          "indexed": false,
          "internalType": "address",
          "name": "account",
          "type": "address"
        }
      ],
      "name": "Paused",
      "type": "event"
    },
    {
      "anonymous": false,
      "inputs": [
        {
          "indexed": true,
          "internalType": "address",
          "name": "user",
          "type": "address"
        },
        {
          "indexed": true,
          "internalType": "uint256",
          "name": "poolId",
          "type": "uint256"
        },
        {
          "indexed": false,
          "internalType": "uint256",
          "name": "amount",
          "type": "uint256"
        }
      ],
      "name": "RequestUnstake",
      "type": "event"
    },
    {
      "anonymous": false,
      "inputs": [
        {
          "indexed": true,
          "internalType": "bytes32",
          "name": "role",
          "type": "bytes32"
        },
        {
          "indexed": true,
          "internalType": "bytes32",
          "name": "previousAdminRole",
          "type": "bytes32"
        },
        {
          "indexed": true,
          "internalType": "bytes32",
          "name": "newAdminRole",
          "type": "bytes32"
        }
      ],
      "name": "RoleAdminChanged",
      "type": "event"
    },
    {
      "anonymous": false,
      "inputs": [
        {
          "indexed": true,
          "internalType": "bytes32",
          "name": "role",
          "type": "bytes32"
        },
        {
          "indexed": true,
          "internalType": "address",
          "name": "account",
          "type": "address"
        },
        {
          "indexed": true,
          "internalType": "address",
          "name": "sender",
          "type": "address"
        }
      ],
      "name": "RoleGranted",
      "type": "event"
    },
    {
      "anonymous": false,
      "inputs": [
        {
          "indexed": true,
          "internalType": "bytes32",
          "name": "role",
          "type": "bytes32"
        },
        {
          "indexed": true,
          "internalType": "address",
          "name": "account",
          "type": "address"
        },
        {
          "indexed": true,
          "internalType": "address",
          "name": "sender",
          "type": "address"
        }
      ],
      "name": "RoleRevoked",
      "type": "event"
    },
    {
      "anonymous": false,
      "inputs": [
        {
          "indexed": true,
          "internalType": "uint256",
          "name": "endBlock",
          "type": "uint256"
        }
      ],
      "name": "SetEndBlock",
      "type": "event"
    },
    {
      "anonymous": false,
      "inputs": [
        {
          "indexed": true,
          "internalType": "contract IERC20",
          "name": "MetaNode",
          "type": "address"
        }
      ],
      "name": "SetMetaNode",
      "type": "event"
    },
    {
      "anonymous": false,
      "inputs": [
        {
          "indexed": true,
          "internalType": "uint256",
          "name": "MetaNodePerBlock",
          "type": "uint256"
        }
      ],
      "name": "SetMetaNodePerBlock",
      "type": "event"
    },
    {
      "anonymous": false,
      "inputs": [
        {
          "indexed": true,
          "internalType": "uint256",
          "name": "poolId",
          "type": "uint256"
        },
        {
          "indexed": true,
          "internalType": "uint256",
          "name": "poolWeight",
          "type": "uint256"
        },
        {
          "indexed": false,
          "internalType": "uint256",
          "name": "totalPoolWeight",
          "type": "uint256"
        }
      ],
      "name": "SetPoolWeight",
      "type": "event"
    },
    {
      "anonymous": false,
      "inputs": [
        {
          "indexed": true,
          "internalType": "uint256",
          "name": "startBlock",
          "type": "uint256"
        }
      ],
      "name": "SetStartBlock",
      "type": "event"
    },
    {
      "anonymous": false,
      "inputs": [],
      "name": "UnpauseClaim",
      "type": "event"
    },
    {
      "anonymous": false,
      "inputs": [],
      "name": "UnpauseWithdraw",
      "type": "event"
    },
    {
      "anonymous": false,
      "inputs": [
        {
          "indexed": false,
          "internalType": "address",
          "name": "account",
          "type": "address"
        }
      ],
      "name": "Unpaused",
      "type": "event"
    },
    {
      "anonymous": false,
      "inputs": [
        {
          "indexed": true,
          "internalType": "uint256",
          "name": "poolId",
          "type": "uint256"
        },
        {
          "indexed": true,
          "internalType": "uint256",
          "name": "lastRewardBlock",
          "type": "uint256"
        },
        {
          "indexed": false,
          "internalType": "uint256",
          "name": "totalMetaNode",
          "type": "uint256"
        }
      ],
      "name": "UpdatePool",
      "type": "event"
    },
    {
      "anonymous": false,
      "inputs": [
        {
          "indexed": true,
          "internalType": "uint256",
          "name": "poolId",
          "type": "uint256"
        },
        {
          "indexed": true,
          "internalType": "uint256",
          "name": "minDepositAmount",
          "type": "uint256"
        },
        {
          "indexed": true,
          "internalType": "uint256",
          "name": "unstakeLockedBlocks",
          "type": "uint256"
        }
      ],
      "name": "UpdatePoolInfo",
      "type": "event"
    },
    {
      "anonymous": false,
      "inputs": [
        {
          "indexed": true,
          "internalType": "address",
          "name": "implementation",
          "type": "address"
        }
      ],
      "name": "Upgraded",
      "type": "event"
    },
    {
      "anonymous": false,
      "inputs": [
        {
          "indexed": true,
          "internalType": "address",
          "name": "user",
          "type": "address"
        },
        {
          "indexed": true,
          "internalType": "uint256",
          "name": "poolId",
          "type": "uint256"
        },
        {
          "indexed": false,
          "internalType": "uint256",
          "name": "amount",
          "type": "uint256"
        },
        {
          "indexed": true,
          "internalType": "uint256",
          "name": "blockNumber",
          "type": "uint256"
        }
      ],
      "name": "Withdraw",
      "type": "event"
    },
    {
      "inputs": [],
      "name": "ADMIN_ROLE",
      "outputs": [
        {
          "internalType": "bytes32",
          "name": "",
          "type": "bytes32"
        }
      ],
      "stateMutability": "view",
      "type": "function"
    },
    {
      "inputs": [],
      "name": "DEFAULT_ADMIN_ROLE",
      "outputs": [
        {
          "internalType": "bytes32",
          "name": "",
          "type": "bytes32"
        }
      ],
      "stateMutability": "view",
      "type": "function"
    },
    {
      "inputs": [],
      "name": "ETH_PID",
      "outputs": [
        {
          "internalType": "uint256",
          "name": "",
          "type": "uint256"
        }
      ],
      "stateMutability": "view",
      "type": "function"
    },
    {
      "inputs": [],
      "name": "MetaNode",
      "outputs": [
        {
          "internalType": "contract IERC20",
          "name": "",
          "type": "address"
        }
      ],
      "stateMutability": "view",
      "type": "function"
    },
    {
      "inputs": [],
      "name": "MetaNodePerBlock",
      "outputs": [
        {
          "internalType": "uint256",
          "name": "",
          "type": "uint256"
        }
      ],
      "stateMutability": "view",
      "type": "function"
    },
    {
      "inputs": [],
      "name": "UPGRADE_INTERFACE_VERSION",
      "outputs": [
        {
          "internalType": "string",
          "name": "",
          "type": "string"
        }
      ],
      "stateMutability": "view",
      "type": "function"
    },
    {
      "inputs": [],
      "name": "UPGRADE_ROLE",
      "outputs": [
        {
          "internalType": "bytes32",
          "name": "",
          "type": "bytes32"
        }
      ],
      "stateMutability": "view",
      "type": "function"
    },
    {
      "inputs": [
        {
          "internalType": "address",
          "name": "_stTokenAddress",
          "type": "address"
        },
        {
          "internalType": "uint256",
          "name": "_poolWeight",
          "type": "uint256"
        },
        {
          "internalType": "uint256",
          "name": "_minDepositAmount",
          "type": "uint256"
        },
        {
          "internalType": "uint256",
          "name": "_unstakeLockedBlocks",
          "type": "uint256"
        },
        {
          "internalType": "bool",
          "name": "_withUpdate",
          "type": "bool"
        }
      ],
      "name": "addPool",
      "outputs": [],
      "stateMutability": "nonpayable",
      "type": "function"
    },
    {
      "inputs": [
        {
          "internalType": "uint256",
          "name": "_pid",
          "type": "uint256"
        }
      ],
      "name": "claim",
      "outputs": [],
      "stateMutability": "nonpayable",
      "type": "function"
    },
    {
      "inputs": [],
      "name": "claimPaused",
      "outputs": [
        {
          "internalType": "bool",
          "name": "",
          "type": "bool"
        }
      ],
      "stateMutability": "view",
      "type": "function"
    },
    {
      "inputs": [
        {
          "internalType": "uint256",
          "name": "_pid",
          "type": "uint256"
        },
        {
          "internalType": "uint256",
          "name": "_amount",
          "type": "uint256"
        }
      ],
      "name": "deposit",
      "outputs": [],
      "stateMutability": "nonpayable",
      "type": "function"
    },
    {
      "inputs": [],
      "name": "depositETH",
      "outputs": [],
      "stateMutability": "payable",
      "type": "function"
    },
    {
      "inputs": [],
      "name": "endBlock",
      "outputs": [
        {
          "internalType": "uint256",
          "name": "",
          "type": "uint256"
        }
      ],
      "stateMutability": "view",
      "type": "function"
    },
    {
      "inputs": [
        {
          "internalType": "uint256",
          "name": "_from",
          "type": "uint256"
        },
        {
          "internalType": "uint256",
          "name": "_to",
          "type": "uint256"
        }
      ],
      "name": "getMultiplier",
      "outputs": [
        {
          "internalType": "uint256",
          "name": "multiplier",
          "type": "uint256"
        }
      ],
      "stateMutability": "view",
      "type": "function"
    },
    {
      "inputs": [
        {
          "internalType": "bytes32",
          "name": "role",
          "type": "bytes32"
        }
      ],
      "name": "getRoleAdmin",
      "outputs": [
        {
          "internalType": "bytes32",
          "name": "",
          "type": "bytes32"
        }
      ],
      "stateMutability": "view",
      "type": "function"
    },
    {
      "inputs": [
        {
          "internalType": "bytes32",
          "name": "role",
          "type": "bytes32"
        },
        {
          "internalType": "address",
          "name": "account",
          "type": "address"
        }
      ],
      "name": "grantRole",
      "outputs": [],
      "stateMutability": "nonpayable",
      "type": "function"
    },
    {
      "inputs": [
        {
          "internalType": "bytes32",
          "name": "role",
          "type": "bytes32"
        },
        {
          "internalType": "address",
          "name": "account",
          "type": "address"
        }
      ],
      "name": "hasRole",
      "outputs": [
        {
          "internalType": "bool",
          "name": "",
          "type": "bool"
        }
      ],
      "stateMutability": "view",
      "type": "function"
    },
    {
      "inputs": [
        {
          "internalType": "contract IERC20",
          "name": "_MetaNode",
          "type": "address"
        },
        {
          "internalType": "uint256",
          "name": "_startBlock",
          "type": "uint256"
        },
        {
          "internalType": "uint256",
          "name": "_endBlock",
          "type": "uint256"
        },
        {
          "internalType": "uint256",
          "name": "_MetaNodePerBlock",
          "type": "uint256"
        }
      ],
      "name": "initialize",
      "outputs": [],
      "stateMutability": "nonpayable",
      "type": "function"
    },
    {
      "inputs": [],
      "name": "massUpdatePools",
      "outputs": [],
      "stateMutability": "nonpayable",
      "type": "function"
    },
    {
      "inputs": [],
      "name": "pauseClaim",
      "outputs": [],
      "stateMutability": "nonpayable",
      "type": "function"
    },
    {
      "inputs": [],
      "name": "pauseWithdraw",
      "outputs": [],
      "stateMutability": "nonpayable",
      "type": "function"
    },
    {
      "inputs": [],
      "name": "paused",
      "outputs": [
        {
          "internalType": "bool",
          "name": "",
          "type": "bool"
        }
      ],
      "stateMutability": "view",
      "type": "function"
    },
    {
      "inputs": [
        {
          "internalType": "uint256",
          "name": "_pid",
          "type": "uint256"
        },
        {
          "internalType": "address",
          "name": "_user",
          "type": "address"
        }
      ],
      "name": "pendingMetaNode",
      "outputs": [
        {
          "internalType": "uint256",
          "name": "",
          "type": "uint256"
        }
      ],
      "stateMutability": "view",
      "type": "function"
    },
    {
      "inputs": [
        {
          "internalType": "uint256",
          "name": "_pid",
          "type": "uint256"
        },
        {
          "internalType": "address",
          "name": "_user",
          "type": "address"
        },
        {
          "internalType": "uint256",
          "name": "_blockNumber",
          "type": "uint256"
        }
      ],
      "name": "pendingMetaNodeByBlockNumber",
      "outputs": [
        {
          "internalType": "uint256",
          "name": "",
          "type": "uint256"
        }
      ],
      "stateMutability": "view",
      "type": "function"
    },
    {
      "inputs": [
        {
          "internalType": "uint256",
          "name": "",
          "type": "uint256"
        }
      ],
      "name": "pool",
      "outputs": [
        {
          "internalType": "address",
          "name": "stTokenAddress",
          "type": "address"
        },
        {
          "internalType": "uint256",
          "name": "poolWeight",
          "type": "uint256"
        },
        {
          "internalType": "uint256",
          "name": "lastRewardBlock",
          "type": "uint256"
        },
        {
          "internalType": "uint256",
          "name": "accMetaNodePerST",
          "type": "uint256"
        },
        {
          "internalType": "uint256",
          "name": "stTokenAmount",
          "type": "uint256"
        },
        {
          "internalType": "uint256",
          "name": "minDepositAmount",
          "type": "uint256"
        },
        {
          "internalType": "uint256",
          "name": "unstakeLockedBlocks",
          "type": "uint256"
        }
      ],
      "stateMutability": "view",
      "type": "function"
    },
    {
      "inputs": [],
      "name": "poolLength",
      "outputs": [
        {
          "internalType": "uint256",
          "name": "",
          "type": "uint256"
        }
      ],
      "stateMutability": "view",
      "type": "function"
    },
    {
      "inputs": [],
      "name": "proxiableUUID",
      "outputs": [
        {
          "internalType": "bytes32",
          "name": "",
          "type": "bytes32"
        }
      ],
      "stateMutability": "view",
      "type": "function"
    },
    {
      "inputs": [
        {
          "internalType": "bytes32",
          "name": "role",
          "type": "bytes32"
        },
        {
          "internalType": "address",
          "name": "callerConfirmation",
          "type": "address"
        }
      ],
      "name": "renounceRole",
      "outputs": [],
      "stateMutability": "nonpayable",
      "type": "function"
    },
    {
      "inputs": [
        {
          "internalType": "bytes32",
          "name": "role",
          "type": "bytes32"
        },
        {
          "internalType": "address",
          "name": "account",
          "type": "address"
        }
      ],
      "name": "revokeRole",
      "outputs": [],
      "stateMutability": "nonpayable",
      "type": "function"
    },
    {
      "inputs": [
        {
          "internalType": "uint256",
          "name": "_endBlock",
          "type": "uint256"
        }
      ],
      "name": "setEndBlock",
      "outputs": [],
      "stateMutability": "nonpayable",
      "type": "function"
    },
    {
      "inputs": [
        {
          "internalType": "contract IERC20",
          "name": "_MetaNode",
          "type": "address"
        }
      ],
      "name": "setMetaNode",
      "outputs": [],
      "stateMutability": "nonpayable",
      "type": "function"
    },
    {
      "inputs": [
        {
          "internalType": "uint256",
          "name": "_MetaNodePerBlock",
          "type": "uint256"
        }
      ],
      "name": "setMetaNodePerBlock",
      "outputs": [],
      "stateMutability": "nonpayable",
      "type": "function"
    },
    {
      "inputs": [
        {
          "internalType": "uint256",
          "name": "_pid",
          "type": "uint256"
        },
        {
          "internalType": "uint256",
          "name": "_poolWeight",
          "type": "uint256"
        },
        {
          "internalType": "bool",
          "name": "_withUpdate",
          "type": "bool"
        }
      ],
      "name": "setPoolWeight",
      "outputs": [],
      "stateMutability": "nonpayable",
      "type": "function"
    },
    {
      "inputs": [
        {
          "internalType": "uint256",
          "name": "_startBlock",
          "type": "uint256"
        }
      ],
      "name": "setStartBlock",
      "outputs": [],
      "stateMutability": "nonpayable",
      "type": "function"
    },
    {
      "inputs": [
        {
          "internalType": "uint256",
          "name": "_pid",
          "type": "uint256"
        },
        {
          "internalType": "address",
          "name": "_user",
          "type": "address"
        }
      ],
      "name": "stakingBalance",
      "outputs": [
        {
          "internalType": "uint256",
          "name": "",
          "type": "uint256"
        }
      ],
      "stateMutability": "view",
      "type": "function"
    },
    {
      "inputs": [],
      "name": "startBlock",
      "outputs": [
        {
          "internalType": "uint256",
          "name": "",
          "type": "uint256"
        }
      ],
      "stateMutability": "view",
      "type": "function"
    },
    {
      "inputs": [
        {
          "internalType": "bytes4",
          "name": "interfaceId",
          "type": "bytes4"
        }
      ],
      "name": "supportsInterface",
      "outputs": [
        {
          "internalType": "bool",
          "name": "",
          "type": "bool"
        }
      ],
      "stateMutability": "view",
      "type": "function"
    },
    {
      "inputs": [],
      "name": "totalPoolWeight",
      "outputs": [
        {
          "internalType": "uint256",
          "name": "",
          "type": "uint256"
        }
      ],
      "stateMutability": "view",
      "type": "function"
    },
    {
      "inputs": [],
      "name": "unpauseClaim",
      "outputs": [],
      "stateMutability": "nonpayable",
      "type": "function"
    },
    {
      "inputs": [],
      "name": "unpauseWithdraw",
      "outputs": [],
      "stateMutability": "nonpayable",
      "type": "function"
    },
    {
      "inputs": [
        {
          "internalType": "uint256",
          "name": "_pid",
          "type": "uint256"
        },
        {
          "internalType": "uint256",
          "name": "_amount",
          "type": "uint256"
        }
      ],
      "name": "unstake",
      "outputs": [],
      "stateMutability": "nonpayable",
      "type": "function"
    },
    {
      "inputs": [
        {
          "internalType": "uint256",
          "name": "_pid",
          "type": "uint256"
        }
      ],
      "name": "updatePool",
      "outputs": [],
      "stateMutability": "nonpayable",
      "type": "function"
    },
    {
      "inputs": [
        {
          "internalType": "uint256",
          "name": "_pid",
          "type": "uint256"
        },
        {
          "internalType": "uint256",
          "name": "_minDepositAmount",
          "type": "uint256"
        },
        {
          "internalType": "uint256",
          "name": "_unstakeLockedBlocks",
          "type": "uint256"
        }
      ],
      "name": "updatePool",
      "outputs": [],
      "stateMutability": "nonpayable",
      "type": "function"
    },
    {
      "inputs": [
        {
          "internalType": "address",
          "name": "newImplementation",
          "type": "address"
        },
        {
          "internalType": "bytes",
          "name": "data",
          "type": "bytes"
        }
      ],
      "name": "upgradeToAndCall",
      "outputs": [],
      "stateMutability": "payable",
      "type": "function"
    },
    {
      "inputs": [
        {
          "internalType": "uint256",
          "name": "",
          "type": "uint256"
        },
        {
          "internalType": "address",
          "name": "",
          "type": "address"
        }
      ],
      "name": "user",
      "outputs": [
        {
          "internalType": "uint256",
          "name": "stAmount",
          "type": "uint256"
        },
        {
          "internalType": "uint256",
          "name": "finishedMetaNode",
          "type": "uint256"
        },
        {
          "internalType": "uint256",
          "name": "pendingMetaNode",
          "type": "uint256"
        }
      ],
      "stateMutability": "view",
      "type": "function"
    },
    {
      "inputs": [
        {
          "internalType": "uint256",
          "name": "_pid",
          "type": "uint256"
        }
      ],
      "name": "withdraw",
      "outputs": [],
      "stateMutability": "nonpayable",
      "type": "function"
    },
    {
      "inputs": [
        {
          "internalType": "uint256",
          "name": "_pid",
          "type": "uint256"
        },
        {
          "internalType": "address",
          "name": "_user",
          "type": "address"
        }
      ],
      "name": "withdrawAmount",
      "outputs": [
        {
          "internalType": "uint256",
          "name": "requestAmount",
          "type": "uint256"
        },
        {
          "internalType": "uint256",
          "name": "pendingWithdrawAmount",
          "type": "uint256"
        }
      ],
      "stateMutability": "view",
      "type": "function"
    },
    {
      "inputs": [],
      "name": "withdrawPaused",
      "outputs": [
        {
          "internalType": "bool",
          "name": "",
          "type": "bool"
        }
      ],
      "stateMutability": "view",
      "type": "function"
    }
  ],
  "transactionHash": "0xe792dd66666121b31c9400cca8025cc0561e0b269f842ffaf6bb2c828cf53bd1",
  "args": [],
  "numDeployments": 1,
  "solcInputHash": "a3d94becee556591134bde5d83f7c665",
  "bytecode": "0x60a06040523073ffffffffffffffffffffffffffffffffffffffff1660809073ffffffffffffffffffffffffffffffffffffffff16815250348015604257600080fd5b50608051615ea361006c60003960008181613686015281816136db015261391c0152615ea36000f3fe6080604052600436106102935760003560e01c80638dbb1e3a1161015a578063d22f1d80116100c1578063ea5c219d1161007a578063ea5c219d14610997578063f35e4a6e146109d4578063f6326fb3146109fd578063fad07ece14610a07578063fe31311214610a30578063ff42335714610a7357610293565b8063d22f1d80146108b1578063d547741f146108dc578063d7bc176914610905578063d86c04441461092e578063de065caa14610957578063e2bbb1581461096e57610293565b8063ab5e124a11610113578063ab5e124a146107b3578063ad3cb1cc146107de578063b6d9d91914610809578063b908afa814610832578063bfc3ebba1461085d578063c713aa941461088857610293565b80638dbb1e3a146106a35780638ff095f9146106e057806391d14854146106f75780639e2c8a5b146107345780639ea96e661461075d578063a217fddf1461078857610293565b806348cd4cb1116101fe5780635c975abb116101b75780635c975abb146105b95780636155e3de146105e457806361a9a03d146105fb578063630b5ba1146106245780636325d5bc1461063b57806375b238fc1461067857610293565b806348cd4cb1146104de5780634ec81af1146105095780634f1ef2861461053257806351eb05a61461054e57806352d1902d146105775780635bb6d007146105a257610293565b80632e1a7d4d116102505780632e1a7d4d146103d05780632f2ff15d146103f95780632f3ffb9f1461042257806336568abe1461044d57806337849b3c14610476578063379607f5146104b557610293565b806301ffc9a71461029857806302559004146102d5578063081e3eda14610300578063083c63231461032b5780631154823414610356578063248a9ca314610393575b600080fd5b3480156102a457600080fd5b506102bf60048036038101906102ba91906143c7565b610ab1565b6040516102cc919061440f565b60405180910390f35b3480156102e157600080fd5b506102ea610b2b565b6040516102f79190614443565b60405180910390f35b34801561030c57600080fd5b50610315610b31565b6040516103229190614443565b60405180910390f35b34801561033757600080fd5b50610340610b3e565b60405161034d9190614443565b60405180910390f35b34801561036257600080fd5b5061037d600480360381019061037891906144e8565b610b44565b60405161038a9190614443565b60405180910390f35b34801561039f57600080fd5b506103ba60048036038101906103b5919061455e565b610beb565b6040516103c7919061459a565b60405180910390f35b3480156103dc57600080fd5b506103f760048036038101906103f291906145b5565b610c19565b005b34801561040557600080fd5b50610420600480360381019061041b91906145e2565b610fcb565b005b34801561042e57600080fd5b50610437610fed565b604051610444919061440f565b60405180910390f35b34801561045957600080fd5b50610474600480360381019061046f91906145e2565b611000565b005b34801561048257600080fd5b5061049d600480360381019061049891906144e8565b61107b565b6040516104ac93929190614622565b60405180910390f35b3480156104c157600080fd5b506104dc60048036038101906104d791906145b5565b6110b2565b005b3480156104ea57600080fd5b506104f36112c1565b6040516105009190614443565b60405180910390f35b34801561051557600080fd5b50610530600480360381019061052b9190614697565b6112c7565b005b61054c60048036038101906105479190614844565b611531565b005b34801561055a57600080fd5b50610575600480360381019061057091906145b5565b611550565b005b34801561058357600080fd5b5061058c611821565b604051610599919061459a565b60405180910390f35b3480156105ae57600080fd5b506105b7611854565b005b3480156105c557600080fd5b506105ce611917565b6040516105db919061440f565b60405180910390f35b3480156105f057600080fd5b506105f961193c565b005b34801561060757600080fd5b50610622600480360381019061061d91906148a0565b611a00565b005b34801561063057600080fd5b50610639611ad4565b005b34801561064757600080fd5b50610662600480360381019061065d91906148cd565b611b03565b60405161066f9190614443565b60405180910390f35b34801561068457600080fd5b5061068d611ca3565b60405161069a919061459a565b60405180910390f35b3480156106af57600080fd5b506106ca60048036038101906106c59190614920565b611cc7565b6040516106d79190614443565b60405180910390f35b3480156106ec57600080fd5b506106f5611de0565b005b34801561070357600080fd5b5061071e600480360381019061071991906145e2565b611ea4565b60405161072b919061440f565b60405180910390f35b34801561074057600080fd5b5061075b60048036038101906107569190614920565b611f1d565b005b34801561076957600080fd5b5061077261220a565b60405161077f9190614443565b60405180910390f35b34801561079457600080fd5b5061079d612210565b6040516107aa919061459a565b60405180910390f35b3480156107bf57600080fd5b506107c8612217565b6040516107d5919061440f565b60405180910390f35b3480156107ea57600080fd5b506107f361222a565b60405161080091906149df565b60405180910390f35b34801561081557600080fd5b50610830600480360381019061082b9190614a2d565b612263565b005b34801561083e57600080fd5b50610847612595565b604051610854919061459a565b60405180910390f35b34801561086957600080fd5b506108726125b9565b60405161087f9190614443565b60405180910390f35b34801561089457600080fd5b506108af60048036038101906108aa91906145b5565b6125be565b005b3480156108bd57600080fd5b506108c6612665565b6040516108d39190614b07565b60405180910390f35b3480156108e857600080fd5b5061090360048036038101906108fe91906145e2565b61268b565b005b34801561091157600080fd5b5061092c600480360381019061092791906145b5565b6126ad565b005b34801561093a57600080fd5b5061095560048036038101906109509190614b22565b612752565b005b34801561096357600080fd5b5061096c61284e565b005b34801561097a57600080fd5b5061099560048036038101906109909190614920565b612911565b005b3480156109a357600080fd5b506109be60048036038101906109b991906144e8565b612a7b565b6040516109cb9190614443565b60405180910390f35b3480156109e057600080fd5b506109fb60048036038101906109f691906145b5565b612ad9565b005b610a05612b80565b005b348015610a1357600080fd5b50610a2e6004803603810190610a299190614b75565b612c9d565b005b348015610a3c57600080fd5b50610a576004803603810190610a5291906145b5565b612e11565b604051610a6a9796959493929190614bd7565b60405180910390f35b348015610a7f57600080fd5b50610a9a6004803603810190610a9591906144e8565b612e83565b604051610aa8929190614c46565b60405180910390f35b60007f7965db0b000000000000000000000000000000000000000000000000000000007bffffffffffffffffffffffffffffffffffffffffffffffffffffffff1916827bffffffffffffffffffffffffffffffffffffffffffffffffffffffff19161480610b245750610b2382612fe4565b5b9050919050565b60045481565b6000600580549050905090565b60015481565b6000826005805490508110610b8e576040517f08c379a0000000000000000000000000000000000000000000000000000000008152600401610b8590614cbb565b60405180910390fd5b6006600085815260200190815260200160002060008473ffffffffffffffffffffffffffffffffffffffff1673ffffffffffffffffffffffffffffffffffffffff1681526020019081526020016000206000015491505092915050565b600080610bf661304e565b905080600001600084815260200190815260200160002060010154915050919050565b610c21613076565b806005805490508110610c69576040517f08c379a0000000000000000000000000000000000000000000000000000000008152600401610c6090614cbb565b60405180910390fd5b600360009054906101000a900460ff1615610cb9576040517f08c379a0000000000000000000000000000000000000000000000000000000008152600401610cb090614d27565b60405180910390fd5b600060058381548110610ccf57610cce614d47565b5b9060005260206000209060070201905060006006600085815260200190815260200160002060003373ffffffffffffffffffffffffffffffffffffffff1673ffffffffffffffffffffffffffffffffffffffff168152602001908152602001600020905060008060005b8360030180549050811015610dc65743846003018281548110610d5f57610d5e614d47565b5b90600052602060002090600202016001015411610dc657836003018181548110610d8c57610d8b614d47565b5b90600052602060002090600202016000015483610da99190614da5565b92508180610db690614dd9565b9250508080600101915050610d39565b5060005b818460030180549050610ddd9190614e21565b811015610e5b57836003018282610df49190614da5565b81548110610e0557610e04614d47565b5b9060005260206000209060020201846003018281548110610e2957610e28614d47565b5b906000526020600020906002020160008201548160000155600182015481600101559050508080600101915050610dca565b5060005b81811015610eb15783600301805480610e7b57610e7a614e55565b5b60019003818190600052602060002090600202016000808201600090556001820160009055505090558080600101915050610e5f565b506000821115610f7357600073ffffffffffffffffffffffffffffffffffffffff168460000160009054906101000a900473ffffffffffffffffffffffffffffffffffffffff1673ffffffffffffffffffffffffffffffffffffffff1603610f2257610f1d33836130b7565b610f72565b610f7133838660000160009054906101000a900473ffffffffffffffffffffffffffffffffffffffff1673ffffffffffffffffffffffffffffffffffffffff166131c99092919063ffffffff16565b5b5b43863373ffffffffffffffffffffffffffffffffffffffff167f02f25270a4d87bea75db541cdfe559334a275b4a233520ed6c0a2429667cca9485604051610fbb9190614443565b60405180910390a4505050505050565b610fd482610beb565b610fdd81613248565b610fe7838361325c565b50505050565b600360009054906101000a900460ff1681565b61100861335d565b73ffffffffffffffffffffffffffffffffffffffff168173ffffffffffffffffffffffffffffffffffffffff161461106c576040517f6697b23200000000000000000000000000000000000000000000000000000000815260040160405180910390fd5b6110768282613365565b505050565b6006602052816000526040600020602052806000526040600020600091509150508060000154908060010154908060020154905083565b6110ba613076565b806005805490508110611102576040517f08c379a00000000000000000000000000000000000000000000000000000000081526004016110f990614cbb565b60405180910390fd5b600360019054906101000a900460ff1615611152576040517f08c379a000000000000000000000000000000000000000000000000000000000815260040161114990614ed0565b60405180910390fd5b60006005838154811061116857611167614d47565b5b9060005260206000209060070201905060006006600085815260200190815260200160002060003373ffffffffffffffffffffffffffffffffffffffff1673ffffffffffffffffffffffffffffffffffffffff16815260200190815260200160002090506111d584611550565b600081600201548260010154670de0b6b3a7640000856003015485600001546111fe9190614ef0565b6112089190614f61565b6112129190614e21565b61121c9190614da5565b9050600081111561123c576000826002018190555061123b3382613467565b5b670de0b6b3a7640000836003015483600001546112599190614ef0565b6112639190614f61565b8260010181905550843373ffffffffffffffffffffffffffffffffffffffff167f34fcbac0073d7c3d388e51312faf357774904998eeb8fca628b9e6f65ee1cbf7836040516112b29190614443565b60405180910390a35050505050565b60005481565b60006112d161365c565b905060008160000160089054906101000a900460ff1615905060008260000160009054906101000a900467ffffffffffffffff1690506000808267ffffffffffffffff1614801561131f5750825b9050600060018367ffffffffffffffff16148015611354575060003073ffffffffffffffffffffffffffffffffffffffff163b145b905081158015611362575080155b15611399576040517ff92ee8a900000000000000000000000000000000000000000000000000000000815260040160405180910390fd5b60018560000160006101000a81548167ffffffffffffffff021916908367ffffffffffffffff16021790555083156113e95760018560000160086101000a81548160ff0219169083151502179055505b8688111580156113f95750600086115b611438576040517f08c379a000000000000000000000000000000000000000000000000000000000815260040161142f90614fde565b60405180910390fd5b611440613670565b61144861367a565b6114556000801b3361325c565b506114807fcab03bc4dbcc648cd59d6bbe9f848d1e9092f914016aa290ee92e18700d1e6f93361325c565b506114ab7f589d473ba17c0f47d494622893831497bad25919b9afb8e33e9521b8963fccde3361325c565b506114b589611a00565b87600081905550866001819055508560028190555083156115265760008560000160086101000a81548160ff0219169083151502179055507fc7f505b2f371ae2175ee4913f4499e1f2633a7b5936321eed1cdaeb6115181d2600160405161151d919061504d565b60405180910390a15b505050505050505050565b611539613684565b6115428261376a565b61154c8282613798565b5050565b806005805490508110611598576040517f08c379a000000000000000000000000000000000000000000000000000000000815260040161158f90614cbb565b60405180910390fd5b6000600583815481106115ae576115ad614d47565b5b90600052602060002090600702019050806002015443116115cf575061181d565b6000806115f683600101546115e8856002015443611cc7565b6138b790919063ffffffff16565b915091508161163a576040517f08c379a0000000000000000000000000000000000000000000000000000000008152600401611631906150b4565b60405180910390fd5b61164f600454826138e090919063ffffffff16565b809250819350505081611697576040517f08c379a000000000000000000000000000000000000000000000000000000000815260040161168e906150b4565b60405180910390fd5b60008360040154905060008111156117d2576000806116c7670de0b6b3a7640000856138b790919063ffffffff16565b915091508161170b576040517f08c379a0000000000000000000000000000000000000000000000000000000008152600401611702906150b4565b60405180910390fd5b61171e83826138e090919063ffffffff16565b809250819350505081611766576040517f08c379a000000000000000000000000000000000000000000000000000000000815260040161175d906150b4565b60405180910390fd5b6000806117808389600301546138f590919063ffffffff16565b91509150816117c4576040517f08c379a00000000000000000000000000000000000000000000000000000000081526004016117bb906150b4565b60405180910390fd5b808860030181905550505050505b4384600201819055508360020154867ff5d2d72d9b25d6853afd7d0554a113b705234b6a68bb36b7f143662994632411846040516118109190614443565b60405180910390a3505050505b5050565b600061182b61391a565b7f360894a13ba1a3210667c828492db98dca3e2076cc3735a920a3ca505d382bbc60001b905090565b7f589d473ba17c0f47d494622893831497bad25919b9afb8e33e9521b8963fccde61187e81613248565b600360009054906101000a900460ff166118cd576040517f08c379a00000000000000000000000000000000000000000000000000000000081526004016118c490615146565b60405180910390fd5b6000600360006101000a81548160ff0219169083151502179055507f1c84bcaead48b692cc46b9b12e9a068951a59c99a2e2bf10b00b60b403cf12e260405160405180910390a150565b6000806119226139a1565b90508060000160009054906101000a900460ff1691505090565b7f589d473ba17c0f47d494622893831497bad25919b9afb8e33e9521b8963fccde61196681613248565b600360009054906101000a900460ff16156119b6576040517f08c379a00000000000000000000000000000000000000000000000000000000081526004016119ad906151b2565b60405180910390fd5b6001600360006101000a81548160ff0219169083151502179055507f8099f593a6aaecd68b6494933cd71f703376ac3975be83692e1b7d800abf683760405160405180910390a150565b7f589d473ba17c0f47d494622893831497bad25919b9afb8e33e9521b8963fccde611a2a81613248565b81600360026101000a81548173ffffffffffffffffffffffffffffffffffffffff021916908373ffffffffffffffffffffffffffffffffffffffff160217905550600360029054906101000a900473ffffffffffffffffffffffffffffffffffffffff1673ffffffffffffffffffffffffffffffffffffffff167fafef10ff40345dd21fc1cac02d8ec620a709c9b0983e9c6454d2bef77f077df360405160405180910390a25050565b6000600580549050905060005b81811015611aff57611af281611550565b8080600101915050611ae1565b5050565b6000836005805490508110611b4d576040517f08c379a0000000000000000000000000000000000000000000000000000000008152600401611b4490614cbb565b60405180910390fd5b600060058681548110611b6357611b62614d47565b5b9060005260206000209060070201905060006006600088815260200190815260200160002060008773ffffffffffffffffffffffffffffffffffffffff1673ffffffffffffffffffffffffffffffffffffffff1681526020019081526020016000209050600082600301549050600083600401549050836002015487118015611bed575060008114155b15611c54576000611c02856002015489611cc7565b90506000600454866001015483611c199190614ef0565b611c239190614f61565b905082670de0b6b3a764000082611c3a9190614ef0565b611c449190614f61565b84611c4f9190614da5565b935050505b82600201548360010154670de0b6b3a7640000848660000154611c779190614ef0565b611c819190614f61565b611c8b9190614e21565b611c959190614da5565b955050505050509392505050565b7f589d473ba17c0f47d494622893831497bad25919b9afb8e33e9521b8963fccde81565b600081831115611d0c576040517f08c379a0000000000000000000000000000000000000000000000000000000008152600401611d039061521e565b60405180910390fd5b600054831015611d1c5760005492505b600154821115611d2c5760015491505b81831115611d6f576040517f08c379a0000000000000000000000000000000000000000000000000000000008152600401611d66906152b0565b60405180910390fd5b6000611d916002548585611d839190614e21565b6138b790919063ffffffff16565b809350819250505080611dd9576040517f08c379a0000000000000000000000000000000000000000000000000000000008152600401611dd09061531c565b60405180910390fd5b5092915050565b7f589d473ba17c0f47d494622893831497bad25919b9afb8e33e9521b8963fccde611e0a81613248565b600360019054906101000a900460ff1615611e5a576040517f08c379a0000000000000000000000000000000000000000000000000000000008152600401611e5190615388565b60405180910390fd5b6001600360016101000a81548160ff0219169083151502179055507f6d73d6b34c378ab3bf6630206d60b7882801b91d03ee20d016ff0d5054db81e160405160405180910390a150565b600080611eaf61304e565b905080600001600085815260200190815260200160002060000160008473ffffffffffffffffffffffffffffffffffffffff1673ffffffffffffffffffffffffffffffffffffffff16815260200190815260200160002060009054906101000a900460ff1691505092915050565b611f25613076565b816005805490508110611f6d576040517f08c379a0000000000000000000000000000000000000000000000000000000008152600401611f6490614cbb565b60405180910390fd5b600360009054906101000a900460ff1615611fbd576040517f08c379a0000000000000000000000000000000000000000000000000000000008152600401611fb490614d27565b60405180910390fd5b600060058481548110611fd357611fd2614d47565b5b9060005260206000209060070201905060006006600086815260200190815260200160002060003373ffffffffffffffffffffffffffffffffffffffff1673ffffffffffffffffffffffffffffffffffffffff1681526020019081526020016000209050838160000154101561207e576040517f08c379a0000000000000000000000000000000000000000000000000000000008152600401612075906153f4565b60405180910390fd5b61208785611550565b60008160010154670de0b6b3a7640000846003015484600001546120ab9190614ef0565b6120b59190614f61565b6120bf9190614e21565b905060008111156120e3578082600201546120da9190614da5565b82600201819055505b600085111561216c578482600001546120fc9190614e21565b82600001819055508160030160405180604001604052808781526020018560060154436121299190614da5565b8152509080600181540180825580915050600190039060005260206000209060020201600090919091909150600082015181600001556020820151816001015550505b84836004015461217c9190614e21565b8360040181905550670de0b6b3a7640000836003015483600001546121a19190614ef0565b6121ab9190614f61565b8260010181905550853373ffffffffffffffffffffffffffffffffffffffff167fc80277265097707f6f12a4ac4c09d46c9926e2eea2536f63616cb04d9fcad7d6876040516121fa9190614443565b60405180910390a3505050505050565b60025481565b6000801b81565b600360019054906101000a900460ff1681565b6040518060400160405280600581526020017f352e302e3000000000000000000000000000000000000000000000000000000081525081565b7f589d473ba17c0f47d494622893831497bad25919b9afb8e33e9521b8963fccde61228d81613248565b6000600580549050111561230f57600073ffffffffffffffffffffffffffffffffffffffff168673ffffffffffffffffffffffffffffffffffffffff160361230a576040517f08c379a000000000000000000000000000000000000000000000000000000000815260040161230190615460565b60405180910390fd5b61237f565b600073ffffffffffffffffffffffffffffffffffffffff168673ffffffffffffffffffffffffffffffffffffffff161461237e576040517f08c379a000000000000000000000000000000000000000000000000000000000815260040161237590615460565b60405180910390fd5b5b600083116123c2576040517f08c379a00000000000000000000000000000000000000000000000000000000081526004016123b9906154cc565b60405180910390fd5b6001544310612406576040517f08c379a00000000000000000000000000000000000000000000000000000000081526004016123fd90615538565b60405180910390fd5b811561241557612414611ad4565b5b60008054431161242757600054612429565b435b9050856004546124399190614da5565b60048190555060056040518060e001604052808973ffffffffffffffffffffffffffffffffffffffff168152602001888152602001838152602001600081526020016000815260200187815260200186815250908060018154018082558091505060019003906000526020600020906007020160009091909190915060008201518160000160006101000a81548173ffffffffffffffffffffffffffffffffffffffff021916908373ffffffffffffffffffffffffffffffffffffffff1602179055506020820151816001015560408201518160020155606082015181600301556080820151816004015560a0820151816005015560c08201518160060155505080868873ffffffffffffffffffffffffffffffffffffffff167f0fa296fce13e7a0e622b3a892e66220c248337289483a3cfa4130cde0caa13468888604051612584929190614c46565b60405180910390a450505050505050565b7fcab03bc4dbcc648cd59d6bbe9f848d1e9092f914016aa290ee92e18700d1e6f981565b600081565b7f589d473ba17c0f47d494622893831497bad25919b9afb8e33e9521b8963fccde6125e881613248565b81600054111561262d576040517f08c379a0000000000000000000000000000000000000000000000000000000008152600401612624906155ca565b60405180910390fd5b81600181905550817f1132c5baccb51da3d049fabc819697dc845fa224ad59d9b555507d6446b4085060405160405180910390a25050565b600360029054906101000a900473ffffffffffffffffffffffffffffffffffffffff1681565b61269482610beb565b61269d81613248565b6126a78383613365565b50505050565b7f589d473ba17c0f47d494622893831497bad25919b9afb8e33e9521b8963fccde6126d781613248565b6000821161271a576040517f08c379a000000000000000000000000000000000000000000000000000000000815260040161271190615636565b60405180910390fd5b81600281905550817fa0b1720fac15ab5b6e184fa4d22f43e0e2594ae0373a61a3fc48aefb84ab92f760405160405180910390a25050565b7f589d473ba17c0f47d494622893831497bad25919b9afb8e33e9521b8963fccde61277c81613248565b8360058054905081106127c4576040517f08c379a00000000000000000000000000000000000000000000000000000000081526004016127bb90614cbb565b60405180910390fd5b83600586815481106127d9576127d8614d47565b5b906000526020600020906007020160050181905550826005868154811061280357612802614d47565b5b9060005260206000209060070201600601819055508284867f30dffdedaa3e3b4849298233f7cd71d229956e875ab09270498c96b7cf9181fd60405160405180910390a45050505050565b7f589d473ba17c0f47d494622893831497bad25919b9afb8e33e9521b8963fccde61287881613248565b600360019054906101000a900460ff166128c7576040517f08c379a00000000000000000000000000000000000000000000000000000000081526004016128be906156a2565b60405180910390fd5b6000600360016101000a81548160ff0219169083151502179055507fe72cb12952f056e3e7496019725f20a13108ca420f67f1ee9c9cdab73fb8ce8560405160405180910390a150565b612919613076565b816005805490508110612961576040517f08c379a000000000000000000000000000000000000000000000000000000000815260040161295890614cbb565b60405180910390fd5b600083036129a4576040517f08c379a000000000000000000000000000000000000000000000000000000000815260040161299b9061570e565b60405180910390fd5b6000600584815481106129ba576129b9614d47565b5b9060005260206000209060070201905080600501548311612a10576040517f08c379a0000000000000000000000000000000000000000000000000000000008152600401612a079061577a565b60405180910390fd5b6000831115612a6b57612a6a3330858460000160009054906101000a900473ffffffffffffffffffffffffffffffffffffffff1673ffffffffffffffffffffffffffffffffffffffff166139c9909392919063ffffffff16565b5b612a758484613a4b565b50505050565b6000826005805490508110612ac5576040517f08c379a0000000000000000000000000000000000000000000000000000000008152600401612abc90614cbb565b60405180910390fd5b612ad0848443611b03565b91505092915050565b7f589d473ba17c0f47d494622893831497bad25919b9afb8e33e9521b8963fccde612b0381613248565b600154821115612b48576040517f08c379a0000000000000000000000000000000000000000000000000000000008152600401612b3f906155ca565b60405180910390fd5b81600081905550817f63b90b79f11a0f132bcb2c4a4ddd44abda45c1308a83b2919318df7f5f8b7be460405160405180910390a25050565b612b88613076565b60006005600081548110612b9f57612b9e614d47565b5b90600052602060002090600702019050600073ffffffffffffffffffffffffffffffffffffffff168160000160009054906101000a900473ffffffffffffffffffffffffffffffffffffffff1673ffffffffffffffffffffffffffffffffffffffff1614612c42576040517f08c379a0000000000000000000000000000000000000000000000000000000008152600401612c3990615460565b60405180910390fd5b60003490508160050154811015612c8e576040517f08c379a0000000000000000000000000000000000000000000000000000000008152600401612c859061577a565b60405180910390fd5b612c99600082613a4b565b5050565b7f589d473ba17c0f47d494622893831497bad25919b9afb8e33e9521b8963fccde612cc781613248565b836005805490508110612d0f576040517f08c379a0000000000000000000000000000000000000000000000000000000008152600401612d0690614cbb565b60405180910390fd5b60008411612d52576040517f08c379a0000000000000000000000000000000000000000000000000000000008152600401612d49906157e6565b60405180910390fd5b8215612d6157612d60611ad4565b5b8360058681548110612d7657612d75614d47565b5b906000526020600020906007020160010154600454612d959190614e21565b612d9f9190614da5565b6004819055508360058681548110612dba57612db9614d47565b5b90600052602060002090600702016001018190555083857f4b8fa3d6a87cb21d1bf4978bf60628ae358a28ac7f39de1751a481c6dd957617600454604051612e029190614443565b60405180910390a35050505050565b60058181548110612e2157600080fd5b90600052602060002090600702016000915090508060000160009054906101000a900473ffffffffffffffffffffffffffffffffffffffff16908060010154908060020154908060030154908060040154908060050154908060060154905087565b600080836005805490508110612ece576040517f08c379a0000000000000000000000000000000000000000000000000000000008152600401612ec590614cbb565b60405180910390fd5b60006006600087815260200190815260200160002060008673ffffffffffffffffffffffffffffffffffffffff1673ffffffffffffffffffffffffffffffffffffffff168152602001908152602001600020905060005b8160030180549050811015612fda5743826003018281548110612f4b57612f4a614d47565b5b90600052602060002090600202016001015411612f9857816003018181548110612f7857612f77614d47565b5b90600052602060002090600202016000015484612f959190614da5565b93505b816003018181548110612fae57612fad614d47565b5b90600052602060002090600202016000015485612fcb9190614da5565b94508080600101915050612f25565b5050509250929050565b60007f01ffc9a7000000000000000000000000000000000000000000000000000000007bffffffffffffffffffffffffffffffffffffffffffffffffffffffff1916827bffffffffffffffffffffffffffffffffffffffffffffffffffffffff1916149050919050565b60007f02dd7bc7dec4dceedda775e58dd541e08a116c6c53815c0bd028192f7b626800905090565b61307e611917565b156130b5576040517fd93c066500000000000000000000000000000000000000000000000000000000815260040160405180910390fd5b565b6000808373ffffffffffffffffffffffffffffffffffffffff16836040516130de90615837565b60006040518083038185875af1925050503d806000811461311b576040519150601f19603f3d011682016040523d82523d6000602084013e613120565b606091505b509150915081613165576040517f08c379a000000000000000000000000000000000000000000000000000000000815260040161315c90615898565b60405180910390fd5b6000815111156131c3578080602001905181019061318391906158cd565b6131c2576040517f08c379a00000000000000000000000000000000000000000000000000000000081526004016131b99061596c565b60405180910390fd5b5b50505050565b613243838473ffffffffffffffffffffffffffffffffffffffff1663a9059cbb85856040516024016131fc92919061598c565b604051602081830303815290604052915060e01b6020820180517bffffffffffffffffffffffffffffffffffffffffffffffffffffffff8381831617835250505050613e77565b505050565b6132598161325461335d565b613f19565b50565b60008061326761304e565b90506132738484611ea4565b61335157600181600001600086815260200190815260200160002060000160008573ffffffffffffffffffffffffffffffffffffffff1673ffffffffffffffffffffffffffffffffffffffff16815260200190815260200160002060006101000a81548160ff0219169083151502179055506132ed61335d565b73ffffffffffffffffffffffffffffffffffffffff168373ffffffffffffffffffffffffffffffffffffffff16857f2f8788117e7eff1d82e926ec794901d17c78024a50270940304540a733656f0d60405160405180910390a46001915050613357565b60009150505b92915050565b600033905090565b60008061337061304e565b905061337c8484611ea4565b1561345b57600081600001600086815260200190815260200160002060000160008573ffffffffffffffffffffffffffffffffffffffff1673ffffffffffffffffffffffffffffffffffffffff16815260200190815260200160002060006101000a81548160ff0219169083151502179055506133f761335d565b73ffffffffffffffffffffffffffffffffffffffff168373ffffffffffffffffffffffffffffffffffffffff16857ff6391f5c32d9c69d2a47ea670b442974b53935d1edc7fd64eb21e047a839171b60405160405180910390a46001915050613461565b60009150505b92915050565b6000600360029054906101000a900473ffffffffffffffffffffffffffffffffffffffff1673ffffffffffffffffffffffffffffffffffffffff166370a08231306040518263ffffffff1660e01b81526004016134c491906159b5565b602060405180830381865afa1580156134e1573d6000803e3d6000fd5b505050506040513d601f19601f8201168201806040525081019061350591906159e5565b9050808211156135b557600360029054906101000a900473ffffffffffffffffffffffffffffffffffffffff1673ffffffffffffffffffffffffffffffffffffffff1663a9059cbb84836040518363ffffffff1660e01b815260040161356c92919061598c565b6020604051808303816000875af115801561358b573d6000803e3d6000fd5b505050506040513d601f19601f820116820180604052508101906135af91906158cd565b50613657565b600360029054906101000a900473ffffffffffffffffffffffffffffffffffffffff1673ffffffffffffffffffffffffffffffffffffffff1663a9059cbb84846040518363ffffffff1660e01b815260040161361292919061598c565b6020604051808303816000875af1158015613631573d6000803e3d6000fd5b505050506040513d601f19601f8201168201806040525081019061365591906158cd565b505b505050565b600080613667613f6a565b90508091505090565b613678613f95565b565b613682613f95565b565b7f000000000000000000000000000000000000000000000000000000000000000073ffffffffffffffffffffffffffffffffffffffff163073ffffffffffffffffffffffffffffffffffffffff16148061373157507f000000000000000000000000000000000000000000000000000000000000000073ffffffffffffffffffffffffffffffffffffffff16613718613fd5565b73ffffffffffffffffffffffffffffffffffffffff1614155b15613768576040517fe07c8dba00000000000000000000000000000000000000000000000000000000815260040160405180910390fd5b565b7fcab03bc4dbcc648cd59d6bbe9f848d1e9092f914016aa290ee92e18700d1e6f961379481613248565b5050565b8173ffffffffffffffffffffffffffffffffffffffff166352d1902d6040518163ffffffff1660e01b8152600401602060405180830381865afa92505050801561380057506040513d601f19601f820116820180604052508101906137fd9190615a27565b60015b61384157816040517f4c9c8ce300000000000000000000000000000000000000000000000000000000815260040161383891906159b5565b60405180910390fd5b7f360894a13ba1a3210667c828492db98dca3e2076cc3735a920a3ca505d382bbc60001b81146138a857806040517faa1d49a400000000000000000000000000000000000000000000000000000000815260040161389f919061459a565b60405180910390fd5b6138b2838361402c565b505050565b60008060008385029050841584868304141792506138d48361409f565b81029150509250929050565b60008060008311915082840490509250929050565b6000806000838501905084811015925061390e8361409f565b81029150509250929050565b7f000000000000000000000000000000000000000000000000000000000000000073ffffffffffffffffffffffffffffffffffffffff163073ffffffffffffffffffffffffffffffffffffffff161461399f576040517fe07c8dba00000000000000000000000000000000000000000000000000000000815260040160405180910390fd5b565b60007fcd5ed15c6e187e77e9aee88184c21f4f2182ab5827cb3b7e07fbedcd63f03300905090565b613a45848573ffffffffffffffffffffffffffffffffffffffff166323b872dd8686866040516024016139fe93929190615a54565b604051602081830303815290604052915060e01b6020820180517bffffffffffffffffffffffffffffffffffffffffffffffffffffffff8381831617835250505050613e77565b50505050565b600060058381548110613a6157613a60614d47565b5b9060005260206000209060070201905060006006600085815260200190815260200160002060003373ffffffffffffffffffffffffffffffffffffffff1673ffffffffffffffffffffffffffffffffffffffff1681526020019081526020016000209050613ace84611550565b600081600001541115613c7657600080613af9846003015484600001546138b790919063ffffffff16565b9150915081613b3d576040517f08c379a0000000000000000000000000000000000000000000000000000000008152600401613b3490615afd565b60405180910390fd5b613b58670de0b6b3a7640000826138e090919063ffffffff16565b809250819350505081613ba0576040517f08c379a0000000000000000000000000000000000000000000000000000000008152600401613b9790615b69565b60405180910390fd5b600080613bba8560010154846140ab90919063ffffffff16565b9150915081613bfe576040517f08c379a0000000000000000000000000000000000000000000000000000000008152600401613bf590615bfb565b60405180910390fd5b6000811115613c7157600080613c218388600201546138f590919063ffffffff16565b9150915081613c65576040517f08c379a0000000000000000000000000000000000000000000000000000000008152600401613c5c90615c67565b60405180910390fd5b80876002018190555050505b505050505b6000831115613ce957600080613c998584600001546138f590919063ffffffff16565b9150915081613cdd576040517f08c379a0000000000000000000000000000000000000000000000000000000008152600401613cd490615cd3565b60405180910390fd5b80836000018190555050505b600080613d038585600401546138f590919063ffffffff16565b9150915081613d47576040517f08c379a0000000000000000000000000000000000000000000000000000000008152600401613d3e90615d3f565b60405180910390fd5b808460040181905550600080613d6e866003015486600001546138b790919063ffffffff16565b9150915081613db2576040517f08c379a0000000000000000000000000000000000000000000000000000000008152600401613da990615afd565b60405180910390fd5b613dcd670de0b6b3a7640000826138e090919063ffffffff16565b809250819350505081613e15576040517f08c379a0000000000000000000000000000000000000000000000000000000008152600401613e0c90615dd1565b60405180910390fd5b808560010181905550873373ffffffffffffffffffffffffffffffffffffffff167f90890809c654f11d6e72a28fa60149770a0d11ec6c92319d6ceb2bb0a4ea1a1589604051613e659190614443565b60405180910390a35050505050505050565b600080602060008451602086016000885af180613e9a576040513d6000823e3d81fd5b3d925060005191505060008214613eb5576001811415613ed1565b60008473ffffffffffffffffffffffffffffffffffffffff163b145b15613f1357836040517f5274afe7000000000000000000000000000000000000000000000000000000008152600401613f0a91906159b5565b60405180910390fd5b50505050565b613f238282611ea4565b613f665780826040517fe2517d3f000000000000000000000000000000000000000000000000000000008152600401613f5d929190615df1565b60405180910390fd5b5050565b60007ff0c57e16840df040f15088dc2f81fe391c3923bec73e23a9662efc9c229c6a0060001b905090565b613f9d6140d0565b613fd3576040517fd7e6bcf800000000000000000000000000000000000000000000000000000000815260040160405180910390fd5b565b60006140037f360894a13ba1a3210667c828492db98dca3e2076cc3735a920a3ca505d382bbc60001b6140f0565b60000160009054906101000a900473ffffffffffffffffffffffffffffffffffffffff16905090565b614035826140fa565b8173ffffffffffffffffffffffffffffffffffffffff167fbc7cd75a20ee27fd9adebab32041f755214dbc6bffa90cc0225b39da2e5c2d3b60405160405180910390a26000815111156140925761408c82826141c7565b5061409b565b61409a61424b565b5b5050565b60008115159050919050565b600080600083850390508481111592506140c48361409f565b81029150509250929050565b60006140da61365c565b60000160089054906101000a900460ff16905090565b6000819050919050565b60008173ffffffffffffffffffffffffffffffffffffffff163b0361415657806040517f4c9c8ce300000000000000000000000000000000000000000000000000000000815260040161414d91906159b5565b60405180910390fd5b806141837f360894a13ba1a3210667c828492db98dca3e2076cc3735a920a3ca505d382bbc60001b6140f0565b60000160006101000a81548173ffffffffffffffffffffffffffffffffffffffff021916908373ffffffffffffffffffffffffffffffffffffffff16021790555050565b60606000808473ffffffffffffffffffffffffffffffffffffffff16846040516141f19190615e56565b600060405180830381855af49150503d806000811461422c576040519150601f19603f3d011682016040523d82523d6000602084013e614231565b606091505b5091509150614241858383614288565b9250505092915050565b6000341115614286576040517fb398979f00000000000000000000000000000000000000000000000000000000815260040160405180910390fd5b565b60608261429d5761429882614317565b61430f565b600082511480156142c5575060008473ffffffffffffffffffffffffffffffffffffffff163b145b1561430757836040517f9996b3150000000000000000000000000000000000000000000000000000000081526004016142fe91906159b5565b60405180910390fd5b819050614310565b5b9392505050565b60008151111561432957805160208201fd5b6040517fd6bda27500000000000000000000000000000000000000000000000000000000815260040160405180910390fd5b6000604051905090565b600080fd5b600080fd5b60007fffffffff0000000000000000000000000000000000000000000000000000000082169050919050565b6143a48161436f565b81146143af57600080fd5b50565b6000813590506143c18161439b565b92915050565b6000602082840312156143dd576143dc614365565b5b60006143eb848285016143b2565b91505092915050565b60008115159050919050565b614409816143f4565b82525050565b60006020820190506144246000830184614400565b92915050565b6000819050919050565b61443d8161442a565b82525050565b60006020820190506144586000830184614434565b92915050565b6144678161442a565b811461447257600080fd5b50565b6000813590506144848161445e565b92915050565b600073ffffffffffffffffffffffffffffffffffffffff82169050919050565b60006144b58261448a565b9050919050565b6144c5816144aa565b81146144d057600080fd5b50565b6000813590506144e2816144bc565b92915050565b600080604083850312156144ff576144fe614365565b5b600061450d85828601614475565b925050602061451e858286016144d3565b9150509250929050565b6000819050919050565b61453b81614528565b811461454657600080fd5b50565b60008135905061455881614532565b92915050565b60006020828403121561457457614573614365565b5b600061458284828501614549565b91505092915050565b61459481614528565b82525050565b60006020820190506145af600083018461458b565b92915050565b6000602082840312156145cb576145ca614365565b5b60006145d984828501614475565b91505092915050565b600080604083850312156145f9576145f8614365565b5b600061460785828601614549565b9250506020614618858286016144d3565b9150509250929050565b60006060820190506146376000830186614434565b6146446020830185614434565b6146516040830184614434565b949350505050565b6000614664826144aa565b9050919050565b61467481614659565b811461467f57600080fd5b50565b6000813590506146918161466b565b92915050565b600080600080608085870312156146b1576146b0614365565b5b60006146bf87828801614682565b94505060206146d087828801614475565b93505060406146e187828801614475565b92505060606146f287828801614475565b91505092959194509250565b600080fd5b600080fd5b6000601f19601f8301169050919050565b7f4e487b7100000000000000000000000000000000000000000000000000000000600052604160045260246000fd5b61475182614708565b810181811067ffffffffffffffff821117156147705761476f614719565b5b80604052505050565b600061478361435b565b905061478f8282614748565b919050565b600067ffffffffffffffff8211156147af576147ae614719565b5b6147b882614708565b9050602081019050919050565b82818337600083830152505050565b60006147e76147e284614794565b614779565b90508281526020810184848401111561480357614802614703565b5b61480e8482856147c5565b509392505050565b600082601f83011261482b5761482a6146fe565b5b813561483b8482602086016147d4565b91505092915050565b6000806040838503121561485b5761485a614365565b5b6000614869858286016144d3565b925050602083013567ffffffffffffffff81111561488a5761488961436a565b5b61489685828601614816565b9150509250929050565b6000602082840312156148b6576148b5614365565b5b60006148c484828501614682565b91505092915050565b6000806000606084860312156148e6576148e5614365565b5b60006148f486828701614475565b9350506020614905868287016144d3565b925050604061491686828701614475565b9150509250925092565b6000806040838503121561493757614936614365565b5b600061494585828601614475565b925050602061495685828601614475565b9150509250929050565b600081519050919050565b600082825260208201905092915050565b60005b8381101561499a57808201518184015260208101905061497f565b60008484015250505050565b60006149b182614960565b6149bb818561496b565b93506149cb81856020860161497c565b6149d481614708565b840191505092915050565b600060208201905081810360008301526149f981846149a6565b905092915050565b614a0a816143f4565b8114614a1557600080fd5b50565b600081359050614a2781614a01565b92915050565b600080600080600060a08688031215614a4957614a48614365565b5b6000614a57888289016144d3565b9550506020614a6888828901614475565b9450506040614a7988828901614475565b9350506060614a8a88828901614475565b9250506080614a9b88828901614a18565b9150509295509295909350565b6000819050919050565b6000614acd614ac8614ac38461448a565b614aa8565b61448a565b9050919050565b6000614adf82614ab2565b9050919050565b6000614af182614ad4565b9050919050565b614b0181614ae6565b82525050565b6000602082019050614b1c6000830184614af8565b92915050565b600080600060608486031215614b3b57614b3a614365565b5b6000614b4986828701614475565b9350506020614b5a86828701614475565b9250506040614b6b86828701614475565b9150509250925092565b600080600060608486031215614b8e57614b8d614365565b5b6000614b9c86828701614475565b9350506020614bad86828701614475565b9250506040614bbe86828701614a18565b9150509250925092565b614bd1816144aa565b82525050565b600060e082019050614bec600083018a614bc8565b614bf96020830189614434565b614c066040830188614434565b614c136060830187614434565b614c206080830186614434565b614c2d60a0830185614434565b614c3a60c0830184614434565b98975050505050505050565b6000604082019050614c5b6000830185614434565b614c686020830184614434565b9392505050565b7f696e76616c696420706964000000000000000000000000000000000000000000600082015250565b6000614ca5600b8361496b565b9150614cb082614c6f565b602082019050919050565b60006020820190508181036000830152614cd481614c98565b9050919050565b7f7769746864726177206973207061757365640000000000000000000000000000600082015250565b6000614d1160128361496b565b9150614d1c82614cdb565b602082019050919050565b60006020820190508181036000830152614d4081614d04565b9050919050565b7f4e487b7100000000000000000000000000000000000000000000000000000000600052603260045260246000fd5b7f4e487b7100000000000000000000000000000000000000000000000000000000600052601160045260246000fd5b6000614db08261442a565b9150614dbb8361442a565b9250828201905080821115614dd357614dd2614d76565b5b92915050565b6000614de48261442a565b91507fffffffffffffffffffffffffffffffffffffffffffffffffffffffffffffffff8203614e1657614e15614d76565b5b600182019050919050565b6000614e2c8261442a565b9150614e378361442a565b9250828203905081811115614e4f57614e4e614d76565b5b92915050565b7f4e487b7100000000000000000000000000000000000000000000000000000000600052603160045260246000fd5b7f636c61696d206973207061757365640000000000000000000000000000000000600082015250565b6000614eba600f8361496b565b9150614ec582614e84565b602082019050919050565b60006020820190508181036000830152614ee981614ead565b9050919050565b6000614efb8261442a565b9150614f068361442a565b9250828202614f148161442a565b91508282048414831517614f2b57614f2a614d76565b5b5092915050565b7f4e487b7100000000000000000000000000000000000000000000000000000000600052601260045260246000fd5b6000614f6c8261442a565b9150614f778361442a565b925082614f8757614f86614f32565b5b828204905092915050565b7f696e76616c696420706172616d65746572730000000000000000000000000000600082015250565b6000614fc860128361496b565b9150614fd382614f92565b602082019050919050565b60006020820190508181036000830152614ff781614fbb565b9050919050565b6000819050919050565b600067ffffffffffffffff82169050919050565b600061503761503261502d84614ffe565b614aa8565b615008565b9050919050565b6150478161501c565b82525050565b6000602082019050615062600083018461503e565b92915050565b7f6f766572666c6f77000000000000000000000000000000000000000000000000600082015250565b600061509e60088361496b565b91506150a982615068565b602082019050919050565b600060208201905081810360008301526150cd81615091565b9050919050565b7f776974686472617720686173206265656e20616c726561647920756e7061757360008201527f6564000000000000000000000000000000000000000000000000000000000000602082015250565b600061513060228361496b565b915061513b826150d4565b604082019050919050565b6000602082019050818103600083015261515f81615123565b9050919050565b7f776974686472617720686173206265656e20616c726561647920706175736564600082015250565b600061519c60208361496b565b91506151a782615166565b602082019050919050565b600060208201905081810360008301526151cb8161518f565b9050919050565b7f696e76616c696420626c6f636b00000000000000000000000000000000000000600082015250565b6000615208600d8361496b565b9150615213826151d2565b602082019050919050565b60006020820190508181036000830152615237816151fb565b9050919050565b7f656e6420626c6f636b206d7573742062652067726561746572207468616e207360008201527f7461727420626c6f636b00000000000000000000000000000000000000000000602082015250565b600061529a602a8361496b565b91506152a58261523e565b604082019050919050565b600060208201905081810360008301526152c98161528d565b9050919050565b7f6d756c7469706c696572206f766572666c6f7700000000000000000000000000600082015250565b600061530660138361496b565b9150615311826152d0565b602082019050919050565b60006020820190508181036000830152615335816152f9565b9050919050565b7f636c61696d20686173206265656e20616c726561647920706175736564000000600082015250565b6000615372601d8361496b565b915061537d8261533c565b602082019050919050565b600060208201905081810360008301526153a181615365565b9050919050565b7f4e6f7420656e6f756768207374616b696e6720746f6b656e2062616c616e6365600082015250565b60006153de60208361496b565b91506153e9826153a8565b602082019050919050565b6000602082019050818103600083015261540d816153d1565b9050919050565b7f696e76616c6964207374616b696e6720746f6b656e2061646472657373000000600082015250565b600061544a601d8361496b565b915061545582615414565b602082019050919050565b600060208201905081810360008301526154798161543d565b9050919050565b7f696e76616c6964207769746864726177206c6f636b656420626c6f636b730000600082015250565b60006154b6601e8361496b565b91506154c182615480565b602082019050919050565b600060208201905081810360008301526154e5816154a9565b9050919050565b7f416c726561647920656e64656400000000000000000000000000000000000000600082015250565b6000615522600d8361496b565b915061552d826154ec565b602082019050919050565b6000602082019050818103600083015261555181615515565b9050919050565b7f737461727420626c6f636b206d75737420626520736d616c6c6572207468616e60008201527f20656e6420626c6f636b00000000000000000000000000000000000000000000602082015250565b60006155b4602a8361496b565b91506155bf82615558565b604082019050919050565b600060208201905081810360008301526155e3816155a7565b9050919050565b7f696e76616c696420706172616d65746572000000000000000000000000000000600082015250565b600061562060118361496b565b915061562b826155ea565b602082019050919050565b6000602082019050818103600083015261564f81615613565b9050919050565b7f636c61696d20686173206265656e20616c726561647920756e70617573656400600082015250565b600061568c601f8361496b565b915061569782615656565b602082019050919050565b600060208201905081810360008301526156bb8161567f565b9050919050565b7f6465706f736974206e6f7420737570706f727420455448207374616b696e6700600082015250565b60006156f8601f8361496b565b9150615703826156c2565b602082019050919050565b60006020820190508181036000830152615727816156eb565b9050919050565b7f6465706f73697420616d6f756e7420697320746f6f20736d616c6c0000000000600082015250565b6000615764601b8361496b565b915061576f8261572e565b602082019050919050565b6000602082019050818103600083015261579381615757565b9050919050565b7f696e76616c696420706f6f6c2077656967687400000000000000000000000000600082015250565b60006157d060138361496b565b91506157db8261579a565b602082019050919050565b600060208201905081810360008301526157ff816157c3565b9050919050565b600081905092915050565b50565b6000615821600083615806565b915061582c82615811565b600082019050919050565b600061584282615814565b9150819050919050565b7f455448207472616e736665722063616c6c206661696c65640000000000000000600082015250565b600061588260188361496b565b915061588d8261584c565b602082019050919050565b600060208201905081810360008301526158b181615875565b9050919050565b6000815190506158c781614a01565b92915050565b6000602082840312156158e3576158e2614365565b5b60006158f1848285016158b8565b91505092915050565b7f455448207472616e73666572206f7065726174696f6e20646964206e6f74207360008201527f7563636565640000000000000000000000000000000000000000000000000000602082015250565b600061595660268361496b565b9150615961826158fa565b604082019050919050565b6000602082019050818103600083015261598581615949565b9050919050565b60006040820190506159a16000830185614bc8565b6159ae6020830184614434565b9392505050565b60006020820190506159ca6000830184614bc8565b92915050565b6000815190506159df8161445e565b92915050565b6000602082840312156159fb576159fa614365565b5b6000615a09848285016159d0565b91505092915050565b600081519050615a2181614532565b92915050565b600060208284031215615a3d57615a3c614365565b5b6000615a4b84828501615a12565b91505092915050565b6000606082019050615a696000830186614bc8565b615a766020830185614bc8565b615a836040830184614434565b949350505050565b7f75736572207374416d6f756e74206d756c206163634d6574614e6f646550657260008201527f5354206f766572666c6f77000000000000000000000000000000000000000000602082015250565b6000615ae7602b8361496b565b9150615af282615a8b565b604082019050919050565b60006020820190508181036000830152615b1681615ada565b9050919050565b7f6163635354206469762031206574686572206f766572666c6f77000000000000600082015250565b6000615b53601a8361496b565b9150615b5e82615b1d565b602082019050919050565b60006020820190508181036000830152615b8281615b46565b9050919050565b7f6163635354207375622066696e69736865644d6574614e6f6465206f7665726660008201527f6c6f770000000000000000000000000000000000000000000000000000000000602082015250565b6000615be560238361496b565b9150615bf082615b89565b604082019050919050565b60006020820190508181036000830152615c1481615bd8565b9050919050565b7f757365722070656e64696e674d6574614e6f6465206f766572666c6f77000000600082015250565b6000615c51601d8361496b565b9150615c5c82615c1b565b602082019050919050565b60006020820190508181036000830152615c8081615c44565b9050919050565b7f75736572207374416d6f756e74206f766572666c6f7700000000000000000000600082015250565b6000615cbd60168361496b565b9150615cc882615c87565b602082019050919050565b60006020820190508181036000830152615cec81615cb0565b9050919050565b7f706f6f6c207374546f6b656e416d6f756e74206f766572666c6f770000000000600082015250565b6000615d29601b8361496b565b9150615d3482615cf3565b602082019050919050565b60006020820190508181036000830152615d5881615d1c565b9050919050565b7f66696e69736865644d6574614e6f6465206469762031206574686572206f766560008201527f72666c6f77000000000000000000000000000000000000000000000000000000602082015250565b6000615dbb60258361496b565b9150615dc682615d5f565b604082019050919050565b60006020820190508181036000830152615dea81615dae565b9050919050565b6000604082019050615e066000830185614bc8565b615e13602083018461458b565b9392505050565b600081519050919050565b6000615e3082615e1a565b615e3a8185615806565b9350615e4a81856020860161497c565b80840191505092915050565b6000615e628284615e25565b91508190509291505056fea26469706673582212205c6756ded0121c00329bf0d6872954bbda81a250ca941f42d8a8a3eca149dc0664736f6c634300081c0033",
  "devdoc": {
    "errors": {
      "AccessControlBadConfirmation()": [
        {
          "details": "The caller of a function is not the expected one. NOTE: Don't confuse with {AccessControlUnauthorizedAccount}."
        }
      ],
      "AccessControlUnauthorizedAccount(address,bytes32)": [
        {
          "details": "The `account` is missing a role."
        }
      ],
      "AddressEmptyCode(address)": [
        {
          "details": "There's no code at `target` (it is not a contract)."
        }
      ],
      "ERC1967InvalidImplementation(address)": [
        {
          "details": "The `implementation` of the proxy is invalid."
        }
      ],
      "ERC1967NonPayable()": [
        {
          "details": "An upgrade function sees `msg.value > 0` that may be lost."
        }
      ],
      "EnforcedPause()": [
        {
          "details": "The operation failed because the contract is paused."
        }
      ],
      "ExpectedPause()": [
        {
          "details": "The operation failed because the contract is not paused."
        }
      ],
      "FailedCall()": [
        {
          "details": "A call to an address target failed. The target may have reverted."
        }
      ],
      "InvalidInitialization()": [
        {
          "details": "The contract is already initialized."
        }
      ],
      "NotInitializing()": [
        {
          "details": "The contract is not initializing."
        }
      ],
      "SafeERC20FailedOperation(address)": [
        {
          "details": "An operation with an ERC-20 token failed."
        }
      ],
      "UUPSUnauthorizedCallContext()": [
        {
          "details": "The call is from an unauthorized context."
        }
      ],
      "UUPSUnsupportedProxiableUUID(bytes32)": [
        {
          "details": "The storage `slot` is unsupported as a UUID."
        }
      ]
    },
    "events": {
      "Initialized(uint64)": {
        "details": "Triggered when the contract has been initialized or reinitialized."
      },
      "Paused(address)": {
        "details": "Emitted when the pause is triggered by `account`."
      },
      "RoleAdminChanged(bytes32,bytes32,bytes32)": {
        "details": "Emitted when `newAdminRole` is set as ``role``'s admin role, replacing `previousAdminRole` `DEFAULT_ADMIN_ROLE` is the starting admin for all roles, despite {RoleAdminChanged} not being emitted to signal this."
      },
      "RoleGranted(bytes32,address,address)": {
        "details": "Emitted when `account` is granted `role`. `sender` is the account that originated the contract call. This account bears the admin role (for the granted role). Expected in cases where the role was granted using the internal {AccessControl-_grantRole}."
      },
      "RoleRevoked(bytes32,address,address)": {
        "details": "Emitted when `account` is revoked `role`. `sender` is the account that originated the contract call:   - if using `revokeRole`, it is the admin role bearer   - if using `renounceRole`, it is the role bearer (i.e. `account`)"
      },
      "Unpaused(address)": {
        "details": "Emitted when the pause is lifted by `account`."
      },
      "Upgraded(address)": {
        "details": "Emitted when the implementation is upgraded."
      }
    },
    "kind": "dev",
    "methods": {
      "claim(uint256)": {
        "params": {
          "_pid": "Id of the pool to be claimed from"
        }
      },
      "deposit(uint256,uint256)": {
        "params": {
          "_amount": "Amount of staking tokens to be deposited",
          "_pid": "Id of the pool to be deposited to"
        }
      },
      "getMultiplier(uint256,uint256)": {
        "params": {
          "_from": "From block number (included)",
          "_to": "To block number (exluded) getMultiplier(pool_.lastRewardBlock, block.number).tryMul(pool_.poolWeight);"
        }
      },
      "getRoleAdmin(bytes32)": {
        "details": "Returns the admin role that controls `role`. See {grantRole} and {revokeRole}. To change a role's admin, use {_setRoleAdmin}."
      },
      "grantRole(bytes32,address)": {
        "details": "Grants `role` to `account`. If `account` had not been already granted `role`, emits a {RoleGranted} event. Requirements: - the caller must have ``role``'s admin role. May emit a {RoleGranted} event."
      },
      "hasRole(bytes32,address)": {
        "details": "Returns `true` if `account` has been granted `role`."
      },
      "paused()": {
        "details": "Returns true if the contract is paused, and false otherwise."
      },
      "proxiableUUID()": {
        "details": "Implementation of the ERC-1822 {proxiableUUID} function. This returns the storage slot used by the implementation. It is used to validate the implementation's compatibility when performing an upgrade. IMPORTANT: A proxy pointing at a proxiable contract should not be considered proxiable itself, because this risks bricking a proxy that upgrades to it, by delegating to itself until out of gas. Thus it is critical that this function revert if invoked through a proxy. This is guaranteed by the `notDelegated` modifier."
      },
      "renounceRole(bytes32,address)": {
        "details": "Revokes `role` from the calling account. Roles are often managed via {grantRole} and {revokeRole}: this function's purpose is to provide a mechanism for accounts to lose their privileges if they are compromised (such as when a trusted device is misplaced). If the calling account had been revoked `role`, emits a {RoleRevoked} event. Requirements: - the caller must be `callerConfirmation`. May emit a {RoleRevoked} event."
      },
      "revokeRole(bytes32,address)": {
        "details": "Revokes `role` from `account`. If `account` had been granted `role`, emits a {RoleRevoked} event. Requirements: - the caller must have ``role``'s admin role. May emit a {RoleRevoked} event."
      },
      "supportsInterface(bytes4)": {
        "details": "Returns true if this contract implements the interface defined by `interfaceId`. See the corresponding https://eips.ethereum.org/EIPS/eip-165#how-interfaces-are-identified[ERC section] to learn more about how these ids are created. This function call must use less than 30 000 gas."
      },
      "unstake(uint256,uint256)": {
        "params": {
          "_amount": "amount of staking tokens to be withdrawn",
          "_pid": "Id of the pool to be withdrawn from"
        }
      },
      "upgradeToAndCall(address,bytes)": {
        "custom:oz-upgrades-unsafe-allow-reachable": "delegatecall",
        "details": "Upgrade the implementation of the proxy to `newImplementation`, and subsequently execute the function call encoded in `data`. Calls {_authorizeUpgrade}. Emits an {Upgraded} event."
      },
      "withdraw(uint256)": {
        "params": {
          "_pid": "Id of the pool to be withdrawn from"
        }
      }
    },
    "version": 1
  },
  "userdoc": {
    "kind": "user",
    "methods": {
      "addPool(address,uint256,uint256,uint256,bool)": {
        "notice": "Add a new staking to pool. Can only be called by admin DO NOT add the same staking token more than once. MetaNode rewards will be messed up if you do"
      },
      "claim(uint256)": {
        "notice": "Claim MetaNode tokens reward"
      },
      "deposit(uint256,uint256)": {
        "notice": "Deposit staking token for MetaNode rewards Before depositing, user needs approve this contract to be able to spend or transfer their staking tokens"
      },
      "depositETH()": {
        "notice": "Deposit staking ETH for MetaNode rewards"
      },
      "getMultiplier(uint256,uint256)": {
        "notice": "Return reward multiplier over given _from to _to block. [_from, _to)"
      },
      "initialize(address,uint256,uint256,uint256)": {
        "notice": "Set MetaNode token address. Set basic info when deploying."
      },
      "massUpdatePools()": {
        "notice": "Update reward variables for all pools. Be careful of gas spending!"
      },
      "pauseClaim()": {
        "notice": "Pause claim. Can only be called by admin."
      },
      "pauseWithdraw()": {
        "notice": "Pause withdraw. Can only be called by admin."
      },
      "pendingMetaNode(uint256,address)": {
        "notice": "Get pending MetaNode amount of user in pool"
      },
      "pendingMetaNodeByBlockNumber(uint256,address,uint256)": {
        "notice": "Get pending MetaNode amount of user by block number in pool"
      },
      "poolLength()": {
        "notice": "Get the length/amount of pool"
      },
      "setEndBlock(uint256)": {
        "notice": "Update staking end block. Can only be called by admin."
      },
      "setMetaNode(address)": {
        "notice": "Set MetaNode token address. Can only be called by admin"
      },
      "setMetaNodePerBlock(uint256)": {
        "notice": "Update the MetaNode reward amount per block. Can only be called by admin."
      },
      "setPoolWeight(uint256,uint256,bool)": {
        "notice": "Update the given pool's weight. Can only be called by admin."
      },
      "setStartBlock(uint256)": {
        "notice": "Update staking start block. Can only be called by admin."
      },
      "stakingBalance(uint256,address)": {
        "notice": "Get the staking amount of user"
      },
      "unpauseClaim()": {
        "notice": "Unpause claim. Can only be called by admin."
      },
      "unpauseWithdraw()": {
        "notice": "Unpause withdraw. Can only be called by admin."
      },
      "unstake(uint256,uint256)": {
        "notice": "Unstake staking tokens"
      },
      "updatePool(uint256)": {
        "notice": "Update reward variables of the given pool to be up-to-date."
      },
      "updatePool(uint256,uint256,uint256)": {
        "notice": "Update the given pool's info (minDepositAmount and unstakeLockedBlocks). Can only be called by admin."
      },
      "withdraw(uint256)": {
        "notice": "Withdraw the unlock unstake amount"
      },
      "withdrawAmount(uint256,address)": {
        "notice": "Get the withdraw amount info, including the locked unstake amount and the unlocked unstake amount"
      }
    },
    "version": 1
  },
  "storageLayout": {
    "storage": [
      {
        "astId": 6748,
        "contract": "contracts/MetaNodeStake.sol:MetaNodeStake",
        "label": "startBlock",
        "offset": 0,
        "slot": "0",
        "type": "t_uint256"
      },
      {
        "astId": 6750,
        "contract": "contracts/MetaNodeStake.sol:MetaNodeStake",
        "label": "endBlock",
        "offset": 0,
        "slot": "1",
        "type": "t_uint256"
      },
      {
        "astId": 6752,
        "contract": "contracts/MetaNodeStake.sol:MetaNodeStake",
        "label": "MetaNodePerBlock",
        "offset": 0,
        "slot": "2",
        "type": "t_uint256"
      },
      {
        "astId": 6754,
        "contract": "contracts/MetaNodeStake.sol:MetaNodeStake",
        "label": "withdrawPaused",
        "offset": 0,
        "slot": "3",
        "type": "t_bool"
      },
      {
        "astId": 6756,
        "contract": "contracts/MetaNodeStake.sol:MetaNodeStake",
        "label": "claimPaused",
        "offset": 1,
        "slot": "3",
        "type": "t_bool"
      },
      {
        "astId": 6759,
        "contract": "contracts/MetaNodeStake.sol:MetaNodeStake",
        "label": "MetaNode",
        "offset": 2,
        "slot": "3",
        "type": "t_contract(IERC20)2298"
      },
      {
        "astId": 6761,
        "contract": "contracts/MetaNodeStake.sol:MetaNodeStake",
        "label": "totalPoolWeight",
        "offset": 0,
        "slot": "4",
        "type": "t_uint256"
      },
      {
        "astId": 6765,
        "contract": "contracts/MetaNodeStake.sol:MetaNodeStake",
        "label": "pool",
        "offset": 0,
        "slot": "5",
        "type": "t_array(t_struct(Pool)6730_storage)dyn_storage"
      },
      {
        "astId": 6772,
        "contract": "contracts/MetaNodeStake.sol:MetaNodeStake",
        "label": "user",
        "offset": 0,
        "slot": "6",
        "type": "t_mapping(t_uint256,t_mapping(t_address,t_struct(User)6746_storage))"
      }
    ],
    "types": {
      "t_address": {
        "encoding": "inplace",
        "label": "address",
        "numberOfBytes": "20"
      },
      "t_array(t_struct(Pool)6730_storage)dyn_storage": {
        "base": "t_struct(Pool)6730_storage",
        "encoding": "dynamic_array",
        "label": "struct MetaNodeStake.Pool[]",
        "numberOfBytes": "32"
      },
      "t_array(t_struct(UnstakeRequest)6735_storage)dyn_storage": {
        "base": "t_struct(UnstakeRequest)6735_storage",
        "encoding": "dynamic_array",
        "label": "struct MetaNodeStake.UnstakeRequest[]",
        "numberOfBytes": "32"
      },
      "t_bool": {
        "encoding": "inplace",
        "label": "bool",
        "numberOfBytes": "1"
      },
      "t_contract(IERC20)2298": {
        "encoding": "inplace",
        "label": "contract IERC20",
        "numberOfBytes": "20"
      },
      "t_mapping(t_address,t_struct(User)6746_storage)": {
        "encoding": "mapping",
        "key": "t_address",
        "label": "mapping(address => struct MetaNodeStake.User)",
        "numberOfBytes": "32",
        "value": "t_struct(User)6746_storage"
      },
      "t_mapping(t_uint256,t_mapping(t_address,t_struct(User)6746_storage))": {
        "encoding": "mapping",
        "key": "t_uint256",
        "label": "mapping(uint256 => mapping(address => struct MetaNodeStake.User))",
        "numberOfBytes": "32",
        "value": "t_mapping(t_address,t_struct(User)6746_storage)"
      },
      "t_struct(Pool)6730_storage": {
        "encoding": "inplace",
        "label": "struct MetaNodeStake.Pool",
        "members": [
          {
            "astId": 6717,
            "contract": "contracts/MetaNodeStake.sol:MetaNodeStake",
            "label": "stTokenAddress",
            "offset": 0,
            "slot": "0",
            "type": "t_address"
          },
          {
            "astId": 6719,
            "contract": "contracts/MetaNodeStake.sol:MetaNodeStake",
            "label": "poolWeight",
            "offset": 0,
            "slot": "1",
            "type": "t_uint256"
          },
          {
            "astId": 6721,
            "contract": "contracts/MetaNodeStake.sol:MetaNodeStake",
            "label": "lastRewardBlock",
            "offset": 0,
            "slot": "2",
            "type": "t_uint256"
          },
          {
            "astId": 6723,
            "contract": "contracts/MetaNodeStake.sol:MetaNodeStake",
            "label": "accMetaNodePerST",
            "offset": 0,
            "slot": "3",
            "type": "t_uint256"
          },
          {
            "astId": 6725,
            "contract": "contracts/MetaNodeStake.sol:MetaNodeStake",
            "label": "stTokenAmount",
            "offset": 0,
            "slot": "4",
            "type": "t_uint256"
          },
          {
            "astId": 6727,
            "contract": "contracts/MetaNodeStake.sol:MetaNodeStake",
            "label": "minDepositAmount",
            "offset": 0,
            "slot": "5",
            "type": "t_uint256"
          },
          {
            "astId": 6729,
            "contract": "contracts/MetaNodeStake.sol:MetaNodeStake",
            "label": "unstakeLockedBlocks",
            "offset": 0,
            "slot": "6",
            "type": "t_uint256"
          }
        ],
        "numberOfBytes": "224"
      },
      "t_struct(UnstakeRequest)6735_storage": {
        "encoding": "inplace",
        "label": "struct MetaNodeStake.UnstakeRequest",
        "members": [
          {
            "astId": 6732,
            "contract": "contracts/MetaNodeStake.sol:MetaNodeStake",
            "label": "amount",
            "offset": 0,
            "slot": "0",
            "type": "t_uint256"
          },
          {
            "astId": 6734,
            "contract": "contracts/MetaNodeStake.sol:MetaNodeStake",
            "label": "unlockBlocks",
            "offset": 0,
            "slot": "1",
            "type": "t_uint256"
          }
        ],
        "numberOfBytes": "64"
      },
      "t_struct(User)6746_storage": {
        "encoding": "inplace",
        "label": "struct MetaNodeStake.User",
        "members": [
          {
            "astId": 6737,
            "contract": "contracts/MetaNodeStake.sol:MetaNodeStake",
            "label": "stAmount",
            "offset": 0,
            "slot": "0",
            "type": "t_uint256"
          },
          {
            "astId": 6739,
            "contract": "contracts/MetaNodeStake.sol:MetaNodeStake",
            "label": "finishedMetaNode",
            "offset": 0,
            "slot": "1",
            "type": "t_uint256"
          },
          {
            "astId": 6741,
            "contract": "contracts/MetaNodeStake.sol:MetaNodeStake",
            "label": "pendingMetaNode",
            "offset": 0,
            "slot": "2",
            "type": "t_uint256"
          },
          {
            "astId": 6745,
            "contract": "contracts/MetaNodeStake.sol:MetaNodeStake",
            "label": "requests",
            "offset": 0,
            "slot": "3",
            "type": "t_array(t_struct(UnstakeRequest)6735_storage)dyn_storage"
          }
        ],
        "numberOfBytes": "128"
      },
      "t_uint256": {
        "encoding": "inplace",
        "label": "uint256",
        "numberOfBytes": "32"
      }
    }
  }
}